{
    "_format": "hh-sol-artifact-1",
    "contractName": "Web3RSVP",
    "sourceName": "contracts/Web3RSVP.sol",
    "abi": [
        {
            "anonymous": false,
            "inputs": [
                {
                    "indexed": false,
                    "internalType": "bytes32",
                    "name": "eventID",
                    "type": "bytes32"
                },
                {
                    "indexed": false,
                    "internalType": "address",
                    "name": "attendeeAddress",
                    "type": "address"
                }
            ],
            "name": "ConfirmedAttendee",
            "type": "event"
        },
        {
            "anonymous": false,
            "inputs": [
                {
                    "indexed": false,
                    "internalType": "bytes32",
                    "name": "eventID",
                    "type": "bytes32"
                }
            ],
            "name": "DepositsPaidOut",
            "type": "event"
        },
        {
            "anonymous": false,
            "inputs": [
                {
                    "indexed": false,
                    "internalType": "bytes32",
                    "name": "eventID",
                    "type": "bytes32"
                },
                {
                    "indexed": false,
                    "internalType": "address",
                    "name": "creatorAddress",
                    "type": "address"
                },
                {
                    "indexed": false,
                    "internalType": "uint256",
                    "name": "eventTimestamp",
                    "type": "uint256"
                },
                {
                    "indexed": false,
                    "internalType": "uint256",
                    "name": "maxCapacity",
                    "type": "uint256"
                },
                {
                    "indexed": false,
                    "internalType": "uint256",
                    "name": "deposit",
                    "type": "uint256"
                },
                {
                    "indexed": false,
                    "internalType": "string",
                    "name": "eventDataCID",
                    "type": "string"
                }
            ],
            "name": "NewEventCreated",
            "type": "event"
        },
        {
            "anonymous": false,
            "inputs": [
                {
                    "indexed": false,
                    "internalType": "bytes32",
                    "name": "eventID",
                    "type": "bytes32"
                },
                {
                    "indexed": false,
                    "internalType": "address",
                    "name": "attendeeAddress",
                    "type": "address"
                }
            ],
            "name": "NewRSVP",
            "type": "event"
        },
        {
            "inputs": [
                {
                    "internalType": "bytes32",
                    "name": "eventId",
                    "type": "bytes32"
                }
            ],
            "name": "confirmAllAttendees",
            "outputs": [],
            "stateMutability": "nonpayable",
            "type": "function"
        },
        {
            "inputs": [
                {
                    "internalType": "bytes32",
                    "name": "eventId",
                    "type": "bytes32"
                },
                {
                    "internalType": "address",
                    "name": "attendee",
                    "type": "address"
                }
            ],
            "name": "confirmAttendee",
            "outputs": [],
            "stateMutability": "nonpayable",
            "type": "function"
        },
        {
            "inputs": [
                {
                    "internalType": "uint256",
                    "name": "eventTimestamp",
                    "type": "uint256"
                },
                {
                    "internalType": "uint256",
                    "name": "deposit",
                    "type": "uint256"
                },
                {
                    "internalType": "uint256",
                    "name": "maxCapacity",
                    "type": "uint256"
                },
                {
                    "internalType": "string",
                    "name": "eventDataCID",
                    "type": "string"
                }
            ],
            "name": "createNewEvent",
            "outputs": [],
            "stateMutability": "nonpayable",
            "type": "function"
        },
        {
            "inputs": [
                {
                    "internalType": "bytes32",
                    "name": "eventId",
                    "type": "bytes32"
                }
            ],
            "name": "createNewRSVP",
            "outputs": [],
            "stateMutability": "payable",
            "type": "function"
        },
        {
            "inputs": [
                {
                    "internalType": "bytes32",
                    "name": "",
                    "type": "bytes32"
                }
            ],
            "name": "idToEvent",
            "outputs": [
                {
                    "internalType": "bytes32",
                    "name": "eventId",
                    "type": "bytes32"
                },
                {
                    "internalType": "string",
                    "name": "eventDataCID",
                    "type": "string"
                },
                {
                    "internalType": "address",
                    "name": "eventOwner",
                    "type": "address"
                },
                {
                    "internalType": "uint256",
                    "name": "eventTimestamp",
                    "type": "uint256"
                },
                {
                    "internalType": "uint256",
                    "name": "deposit",
                    "type": "uint256"
                },
                {
                    "internalType": "uint256",
                    "name": "maxCapacity",
                    "type": "uint256"
                },
                {
                    "internalType": "bool",
                    "name": "paidOut",
                    "type": "bool"
                }
            ],
            "stateMutability": "view",
            "type": "function"
        },
        {
            "inputs": [
                {
                    "internalType": "bytes32",
                    "name": "eventId",
                    "type": "bytes32"
                }
            ],
            "name": "withdrawUnclaimedDeposits",
            "outputs": [],
            "stateMutability": "nonpayable",
            "type": "function"
        }
    ],
    "bytecode": "0x608060405234801561001057600080fd5b506121ca806100206000396000f3fe6080604052600436106100545760003560e01c806292098c1461005957806317f0165a146100825780636dcdf2cd1461009e57806379747571146100c7578063909ef021146100f0578063acdbe01214610133575b600080fd5b34801561006557600080fd5b50610080600480360381019061007b9190611557565b61015c565b005b61009c60048036038101906100979190611615565b6103d0565b005b3480156100aa57600080fd5b506100c560048036038101906100c091906116a0565b61063c565b005b3480156100d357600080fd5b506100ee60048036038101906100e99190611615565b610aa5565b005b3480156100fc57600080fd5b5061011760048036038101906101129190611615565b610f5d565b60405161012a97969594939291906117c1565b60405180910390f35b34801561013f57600080fd5b5061015a60048036038101906101559190611615565b611054565b005b600033308787876040516020016101779594939291906118a0565b604051602081830303815290604052805190602001209050600080600083815260200190815260200160002060030154146101e7576040517f08c379a00000000000000000000000000000000000000000000000000000000081526004016101de9061194b565b60405180910390fd5b60608060405180610120016040528084815260200186868080601f016020809104026020016040519081016040528093929190818152602001838380828437600081840152601f19601f8201169050808301925050505050505081526020013373ffffffffffffffffffffffffffffffffffffffff168152602001898152602001888152602001878152602001838152602001828152602001600015158152506000808581526020019081526020016000206000820151816000015560208201518160010190805190602001906102bf929190611385565b5060408201518160020160006101000a81548173ffffffffffffffffffffffffffffffffffffffff021916908373ffffffffffffffffffffffffffffffffffffffff160217905550606082015181600301556080820151816004015560a0820151816005015560c082015181600601908051906020019061034192919061140b565b5060e082015181600701908051906020019061035e92919061140b565b506101008201518160080160006101000a81548160ff0219169083151502179055509050507f2553138c3f9c9008f266dbdbe9fc64f5b71e098d06ef714a190a65a8b9fc6bf383338a898b8a8a6040516103be97969594939291906119a7565b60405180910390a15050505050505050565b600080600083815260200190815260200160002090508060040154341461042c576040517f08c379a000000000000000000000000000000000000000000000000000000000815260040161042390611a5d565b60405180910390fd5b42816003015411610472576040517f08c379a000000000000000000000000000000000000000000000000000000000815260040161046990611ac9565b60405180910390fd5b80600601805490508160050154116104bf576040517f08c379a00000000000000000000000000000000000000000000000000000000081526004016104b690611b5b565b60405180910390fd5b60005b81600601805490508160ff161015610599573373ffffffffffffffffffffffffffffffffffffffff16826006018260ff168154811061050457610503611b7b565b5b9060005260206000200160009054906101000a900473ffffffffffffffffffffffffffffffffffffffff1673ffffffffffffffffffffffffffffffffffffffff161415610586576040517f08c379a000000000000000000000000000000000000000000000000000000000815260040161057d90611bf6565b60405180910390fd5b808061059190611c52565b9150506104c2565b5080600601339080600181540180825580915050600190039060005260206000200160009091909190916101000a81548173ffffffffffffffffffffffffffffffffffffffff021916908373ffffffffffffffffffffffffffffffffffffffff1602179055507fb79f4240bbdd272d98e02a5db7f0cf156e5fc000961c517670a26eeeec63ed908233604051610630929190611c7c565b60405180910390a15050565b600080600084815260200190815260200160002090503373ffffffffffffffffffffffffffffffffffffffff168160020160009054906101000a900473ffffffffffffffffffffffffffffffffffffffff1673ffffffffffffffffffffffffffffffffffffffff16146106e4576040517f08c379a00000000000000000000000000000000000000000000000000000000081526004016106db90611d17565b60405180910390fd5b6000805b82600601805490508160ff16101561078d57826006018160ff168154811061071357610712611b7b565b5b9060005260206000200160009054906101000a900473ffffffffffffffffffffffffffffffffffffffff1673ffffffffffffffffffffffffffffffffffffffff168473ffffffffffffffffffffffffffffffffffffffff16141561077a576001915061078d565b808061078590611c52565b9150506106e8565b50806107ce576040517f08c379a00000000000000000000000000000000000000000000000000000000081526004016107c590611d83565b60405180910390fd5b60005b82600701805490508160ff1610156108a8578373ffffffffffffffffffffffffffffffffffffffff16836007018260ff168154811061081357610812611b7b565b5b9060005260206000200160009054906101000a900473ffffffffffffffffffffffffffffffffffffffff1673ffffffffffffffffffffffffffffffffffffffff161415610895576040517f08c379a000000000000000000000000000000000000000000000000000000000815260040161088c90611def565b60405180910390fd5b80806108a090611c52565b9150506107d1565b50600015158260080160009054906101000a900460ff16151514610901576040517f08c379a00000000000000000000000000000000000000000000000000000000081526004016108f890611e5b565b60405180910390fd5b81600701839080600181540180825580915050600190039060005260206000200160009091909190916101000a81548173ffffffffffffffffffffffffffffffffffffffff021916908373ffffffffffffffffffffffffffffffffffffffff16021790555060008373ffffffffffffffffffffffffffffffffffffffff16836004015460405161099090611eac565b60006040518083038185875af1925050503d80600081146109cd576040519150601f19603f3d011682016040523d82523d6000602084013e6109d2565b606091505b5050905080610a2557826007018054806109ef576109ee611ec1565b5b6001900381819060005260206000200160006101000a81549073ffffffffffffffffffffffffffffffffffffffff021916905590555b80610a65576040517f08c379a0000000000000000000000000000000000000000000000000000000008152600401610a5c90611f3c565b60405180910390fd5b7ff8d1583a733d83bdd3ef5464129d0a95a36d62b382d31c6d0467a61f4264381b8585604051610a96929190611c7c565b60405180910390a15050505050565b60008060008381526020019081526020016000206040518061012001604052908160008201548152602001600182018054610adf90611f8b565b80601f0160208091040260200160405190810160405280929190818152602001828054610b0b90611f8b565b8015610b585780601f10610b2d57610100808354040283529160200191610b58565b820191906000526020600020905b815481529060010190602001808311610b3b57829003601f168201915b505050505081526020016002820160009054906101000a900473ffffffffffffffffffffffffffffffffffffffff1673ffffffffffffffffffffffffffffffffffffffff1673ffffffffffffffffffffffffffffffffffffffff16815260200160038201548152602001600482015481526020016005820154815260200160068201805480602002602001604051908101604052809291908181526020018280548015610c5a57602002820191906000526020600020905b8160009054906101000a900473ffffffffffffffffffffffffffffffffffffffff1673ffffffffffffffffffffffffffffffffffffffff1681526020019060010190808311610c10575b5050505050815260200160078201805480602002602001604051908101604052809291908181526020018280548015610ce857602002820191906000526020600020905b8160009054906101000a900473ffffffffffffffffffffffffffffffffffffffff1673ffffffffffffffffffffffffffffffffffffffff1681526020019060010190808311610c9e575b505050505081526020016008820160009054906101000a900460ff161515151581525050905080610100015115610d54576040517f08c379a0000000000000000000000000000000000000000000000000000000008152600401610d4b90612009565b60405180910390fd5b62093a808160600151610d679190612029565b421015610da9576040517f08c379a0000000000000000000000000000000000000000000000000000000008152600401610da0906120cb565b60405180910390fd5b3373ffffffffffffffffffffffffffffffffffffffff16816040015173ffffffffffffffffffffffffffffffffffffffff1614610e1b576040517f08c379a0000000000000000000000000000000000000000000000000000000008152600401610e1290611d17565b60405180910390fd5b60008160e00151518260c0015151610e3391906120eb565b90506000826080015182610e47919061211f565b905060018361010001901515908115158152505060003373ffffffffffffffffffffffffffffffffffffffff1682604051610e8190611eac565b60006040518083038185875af1925050503d8060008114610ebe576040519150601f19603f3d011682016040523d82523d6000602084013e610ec3565b606091505b5050905080610edf576000846101000190151590811515815250505b80610f1f576040517f08c379a0000000000000000000000000000000000000000000000000000000008152600401610f1690611f3c565b60405180910390fd5b7f393073ea1365f611c3d2f240c992960d2b99dc81715555d3fc40fc55ba80af9c85604051610f4e9190612179565b60405180910390a15050505050565b6000602052806000526040600020600091509050806000015490806001018054610f8690611f8b565b80601f0160208091040260200160405190810160405280929190818152602001828054610fb290611f8b565b8015610fff5780601f10610fd457610100808354040283529160200191610fff565b820191906000526020600020905b815481529060010190602001808311610fe257829003601f168201915b5050505050908060020160009054906101000a900473ffffffffffffffffffffffffffffffffffffffff16908060030154908060040154908060050154908060080160009054906101000a900460ff16905087565b6000806000838152602001908152602001600020604051806101200160405290816000820154815260200160018201805461108e90611f8b565b80601f01602080910402602001604051908101604052809291908181526020018280546110ba90611f8b565b80156111075780601f106110dc57610100808354040283529160200191611107565b820191906000526020600020905b8154815290600101906020018083116110ea57829003601f168201915b505050505081526020016002820160009054906101000a900473ffffffffffffffffffffffffffffffffffffffff1673ffffffffffffffffffffffffffffffffffffffff1673ffffffffffffffffffffffffffffffffffffffff1681526020016003820154815260200160048201548152602001600582015481526020016006820180548060200260200160405190810160405280929190818152602001828054801561120957602002820191906000526020600020905b8160009054906101000a900473ffffffffffffffffffffffffffffffffffffffff1673ffffffffffffffffffffffffffffffffffffffff16815260200190600101908083116111bf575b505050505081526020016007820180548060200260200160405190810160405280929190818152602001828054801561129757602002820191906000526020600020905b8160009054906101000a900473ffffffffffffffffffffffffffffffffffffffff1673ffffffffffffffffffffffffffffffffffffffff168152602001906001019080831161124d575b505050505081526020016008820160009054906101000a900460ff16151515158152505090503373ffffffffffffffffffffffffffffffffffffffff16816040015173ffffffffffffffffffffffffffffffffffffffff161461132f576040517f08c379a000000000000000000000000000000000000000000000000000000000815260040161132690611d17565b60405180910390fd5b60005b8160c00151518160ff1610156113805761136d838360c001518360ff16815181106113605761135f611b7b565b5b602002602001015161063c565b808061137890611c52565b915050611332565b505050565b82805461139190611f8b565b90600052602060002090601f0160209004810192826113b357600085556113fa565b82601f106113cc57805160ff19168380011785556113fa565b828001600101855582156113fa579182015b828111156113f95782518255916020019190600101906113de565b5b5090506114079190611495565b5090565b828054828255906000526020600020908101928215611484579160200282015b828111156114835782518260006101000a81548173ffffffffffffffffffffffffffffffffffffffff021916908373ffffffffffffffffffffffffffffffffffffffff1602179055509160200191906001019061142b565b5b5090506114919190611495565b5090565b5b808211156114ae576000816000905550600101611496565b5090565b600080fd5b600080fd5b6000819050919050565b6114cf816114bc565b81146114da57600080fd5b50565b6000813590506114ec816114c6565b92915050565b600080fd5b600080fd5b600080fd5b60008083601f840112611517576115166114f2565b5b8235905067ffffffffffffffff811115611534576115336114f7565b5b6020830191508360018202830111156115505761154f6114fc565b5b9250929050565b600080600080600060808688031215611573576115726114b2565b5b6000611581888289016114dd565b9550506020611592888289016114dd565b94505060406115a3888289016114dd565b935050606086013567ffffffffffffffff8111156115c4576115c36114b7565b5b6115d088828901611501565b92509250509295509295909350565b6000819050919050565b6115f2816115df565b81146115fd57600080fd5b50565b60008135905061160f816115e9565b92915050565b60006020828403121561162b5761162a6114b2565b5b600061163984828501611600565b91505092915050565b600073ffffffffffffffffffffffffffffffffffffffff82169050919050565b600061166d82611642565b9050919050565b61167d81611662565b811461168857600080fd5b50565b60008135905061169a81611674565b92915050565b600080604083850312156116b7576116b66114b2565b5b60006116c585828601611600565b92505060206116d68582860161168b565b9150509250929050565b6116e9816115df565b82525050565b600081519050919050565b600082825260208201905092915050565b60005b8381101561172957808201518184015260208101905061170e565b83811115611738576000848401525b50505050565b6000601f19601f8301169050919050565b600061175a826116ef565b61176481856116fa565b935061177481856020860161170b565b61177d8161173e565b840191505092915050565b61179181611662565b82525050565b6117a0816114bc565b82525050565b60008115159050919050565b6117bb816117a6565b82525050565b600060e0820190506117d6600083018a6116e0565b81810360208301526117e8818961174f565b90506117f76040830188611788565b6118046060830187611797565b6118116080830186611797565b61181e60a0830185611797565b61182b60c08301846117b2565b98975050505050505050565b60008160601b9050919050565b600061184f82611837565b9050919050565b600061186182611844565b9050919050565b61187961187482611662565b611856565b82525050565b6000819050919050565b61189a611895826114bc565b61187f565b82525050565b60006118ac8288611868565b6014820191506118bc8287611868565b6014820191506118cc8286611889565b6020820191506118dc8285611889565b6020820191506118ec8284611889565b6020820191508190509695505050505050565b7f414c524541445920524547495354455245440000000000000000000000000000600082015250565b60006119356012836116fa565b9150611940826118ff565b602082019050919050565b6000602082019050818103600083015261196481611928565b9050919050565b82818337600083830152505050565b600061198683856116fa565b935061199383858461196b565b61199c8361173e565b840190509392505050565b600060c0820190506119bc600083018a6116e0565b6119c96020830189611788565b6119d66040830188611797565b6119e36060830187611797565b6119f06080830186611797565b81810360a0830152611a0381848661197a565b905098975050505050505050565b7f494e53554646494349454e542046554e44530000000000000000000000000000600082015250565b6000611a476012836116fa565b9150611a5282611a11565b602082019050919050565b60006020820190508181036000830152611a7681611a3a565b9050919050565b7f4556454e542048415320414c5245414459205354415254454400000000000000600082015250565b6000611ab36019836116fa565b9150611abe82611a7d565b602082019050919050565b60006020820190508181036000830152611ae281611aa6565b9050919050565b7f4556454e5420484153205245414348454420495453204d4158494d554d20434160008201527f5041434954590000000000000000000000000000000000000000000000000000602082015250565b6000611b456026836116fa565b9150611b5082611ae9565b604082019050919050565b60006020820190508181036000830152611b7481611b38565b9050919050565b7f4e487b7100000000000000000000000000000000000000000000000000000000600052603260045260246000fd5b7f414c524541445920434f4e4649524d4544000000000000000000000000000000600082015250565b6000611be06011836116fa565b9150611beb82611baa565b602082019050919050565b60006020820190508181036000830152611c0f81611bd3565b9050919050565b7f4e487b7100000000000000000000000000000000000000000000000000000000600052601160045260246000fd5b600060ff82169050919050565b6000611c5d82611c45565b915060ff821415611c7157611c70611c16565b5b600182019050919050565b6000604082019050611c9160008301856116e0565b611c9e6020830184611788565b9392505050565b7f4d4553534147452053454e444552204953204e4f54204556454e54204f574e4560008201527f5200000000000000000000000000000000000000000000000000000000000000602082015250565b6000611d016021836116fa565b9150611d0c82611ca5565b604082019050919050565b60006020820190508181036000830152611d3081611cf4565b9050919050565b7f415454454e44454520484153204e4f5420525356506400000000000000000000600082015250565b6000611d6d6016836116fa565b9150611d7882611d37565b602082019050919050565b60006020820190508181036000830152611d9c81611d60565b9050919050565b7f414c524541445920434c41494d45440000000000000000000000000000000000600082015250565b6000611dd9600f836116fa565b9150611de482611da3565b602082019050919050565b60006020820190508181036000830152611e0881611dcc565b9050919050565b7f414c52454144592050414944204f555400000000000000000000000000000000600082015250565b6000611e456010836116fa565b9150611e5082611e0f565b602082019050919050565b60006020820190508181036000830152611e7481611e38565b9050919050565b600081905092915050565b50565b6000611e96600083611e7b565b9150611ea182611e86565b600082019050919050565b6000611eb782611e89565b9150819050919050565b7f4e487b7100000000000000000000000000000000000000000000000000000000600052603160045260246000fd5b7f4661696c656420746f2073656e64204574686572000000000000000000000000600082015250565b6000611f266014836116fa565b9150611f3182611ef0565b602082019050919050565b60006020820190508181036000830152611f5581611f19565b9050919050565b7f4e487b7100000000000000000000000000000000000000000000000000000000600052602260045260246000fd5b60006002820490506001821680611fa357607f821691505b60208210811415611fb757611fb6611f5c565b5b50919050565b7f414c524541445920504149440000000000000000000000000000000000000000600082015250565b6000611ff3600c836116fa565b9150611ffe82611fbd565b602082019050919050565b6000602082019050818103600083015261202281611fe6565b9050919050565b6000612034826114bc565b915061203f836114bc565b9250827fffffffffffffffffffffffffffffffffffffffffffffffffffffffffffffffff0382111561207457612073611c16565b5b828201905092915050565b7f544f4f204541524c590000000000000000000000000000000000000000000000600082015250565b60006120b56009836116fa565b91506120c08261207f565b602082019050919050565b600060208201905081810360008301526120e4816120a8565b9050919050565b60006120f6826114bc565b9150612101836114bc565b92508282101561211457612113611c16565b5b828203905092915050565b600061212a826114bc565b9150612135836114bc565b9250817fffffffffffffffffffffffffffffffffffffffffffffffffffffffffffffffff048311821515161561216e5761216d611c16565b5b828202905092915050565b600060208201905061218e60008301846116e0565b9291505056fea2646970667358221220e0dee7a9d5ec84a6ae23cea1abd5492796f25c532887adf3a48e60f17dbd5ce064736f6c63430008090033",
    "linkReferences": {},
    "deployedLinkReferences": {}
}